:1000000000800010CD000000DD000000DF000000D7
:10001000E1000000E3000000E50000000000000037
:10002000000000000000000000000000E7000000E9
:10003000E900000000000000EB000000C504000023
:10004000EF000000EF000000EF000000EF000000F4
:10005000EF000000EF000000EF000000EF000000E4
:10006000EF000000EF000000EF000000EF000000D4
:10007000EF000000EF000000EF000000EF000000C4
:10008000EF000000EF000000EF000000EF000000B4
:10009000EF000000EF000000EF000000EF000000A4
:1000A000EF000000EF000000EF000000EF00000094
:1000B000EF000000EF000000EF000000EF00000084
:1000C000EF000000EF000000EF0000000148804753
:1000D000014800479902000071050000FEE7FEE7B5
:1000E000FEE7FEE7FEE7FEE7FEE7FEE7FEE7FEE7E8
:1000F00080B400AF624BD3F888304FEA136303F04B
:100100000303032B7BD15E4BD3F80C3103F00303C5
:10011000032B00F2B08001A252F823F02D01000061
:1001200073010000BB0100002D010000544BD3F807
:1001300088304FEA43434FEA534303F10103514AE6
:1001400002FB03F24E4BD3F888304FEA134303F01F
:10015000FF0303F10103B2FBF3F2494BD3F804317F
:1001600003F0FF0303F10103B2FBF3F2464B1A6005
:1001700082E0434BD3F888304FEA43434FEA53437E
:1001800003F10103414A02FB03F23D4BD3F88830EF
:100190004FEA134303F0FF0303F10103B2FBF3F251
:1001A000374BD3F8043103F0FF0303F10103B2FB33
:1001B000F3F2354B1A6000BF5EE0314BD3F8883064
:1001C0004FEA43434FEA534303F101034FEA03422B
:1001D0002B4BD3F888304FEA134303F0FF0303F1AE
:1001E0000103B2FBF3F2264BD3F8043103F0FF0313
:1001F00003F10103B2FBF3F2234B1A603CE0204B06
:10020000D3F80C3103F00303032B35D801A252F8C5
:1002100023F000BF250200003F0200005902000049
:1002200025020000164BD3F8043103F0FF0303F15D
:100230000103174AB2FBF3F2134B1A601CE0104B98
:10024000D3F8043103F0FF0303F10103114AB2FBB9
:10025000F3F20D4B1A600FE0094BD3F8043103F0B1
:10026000FF0303F101034FF40042B2FBF3F2064B2C
:100270001A6000BF00E000BFBD4680BC704700BFF1
:1002800000C00F4000127A000000001000366E011E
:1002900000093D00001BB70080B400AF5A4B4FF07F
:1002A0002002C3F8A021584BD3F8A03103F020035B
:1002B000002B07D000BF544BD3F8A03103F040030C
:1002C000002BF8D0504B4FF00302C3F804214E4BE3
:1002D0004FF00002C3F8A8214B4B4FF00002C3F8C7
:1002E000AC21494B4FF00102C3F80C21464B474A61
:1002F000C3F88420444B4FF0AA02C3F88C20424B31
:100300004FF05502C3F88C203F4B4FF00102C3F869
:1003100080203D4B4FF0AA02C3F88C203A4B4FF09F
:100320005502C3F88C2000BF374BD3F8883003F058
:100330008063002BF8D0344B4FF00302C3F88020C9
:10034000314B4FF0AA02C3F88C202F4B4FF05502CF
:10035000C3F88C2000BF2C4BD3F8883003F04073D7
:10036000002BF8D0284B4FF02302C3F8A420264BD3
:100370004FF0AA02C3F8AC20234B4FF05502C3F84C
:10038000AC20214B4FF00102C3F8A0201E4B4FF0D0
:10039000AA02C3F8AC201C4B4FF05502C3F8AC20A6
:1003A00000BF194BD3F8A83003F48063002BF8D0BA
:1003B000154B4FF00302C3F8A020134B4FF0AA02D5
:1003C000C3F8AC20104B4FF05502C3F8AC2000BF6F
:1003D0000D4BD3F8A83003F44073002BF8D00A4B30
:1003E0000B4AC3F8C420084B4FF00002C3F8C821E1
:1003F000054B43F23A021A60064B4FF000029A6036
:10040000BD4680BC704700BF00C00F4063000500C0
:10041000DE87280400ED00E080B483B000AF03461F
:100420003960FB7197F90730002B0DDA0E49FB7923
:1004300003F00F03A3F104033A68D2B24FEAC202F9
:10044000D2B2CB181A760AE0084997F907303A6811
:10045000D2B24FEAC202D2B2CB1883F8002307F11E
:100460000C07BD4680BC704700ED00E000E100E0F5
:1004700080B582B000AF78607A686FF07F439A42AF
:1004800002D94FF0010316E00D4B7A6822F07F424B
:1004900002F1FF325A604FF0FF304FF01F01FFF7BB
:1004A000BBFF074B4FF000029A60054B4FF007026D
:1004B0001A604FF00003184607F10807BD4680BDDB
:1004C00010E000E080B400AF044B1B6803F10102B0
:1004D000024B1A60BD4680BC704700BF0800001088
:1004E00080B485B000AF7860074B1B68FB6000BF2D
:1004F000054B1A68FB68D21A7B689A42F8D307F159
:100500001407BD4680BC70470800001080B400AFDF
:10051000034B4FF0FF321A60BD4680BC704700BFEE
:1005200020C0092080B483B000AF7860054B054A35
:1005300051697A6841EA02025A6107F10C07BD4627
:1005400080BC704720C0092080B483B000AF7860C1
:10055000064B064A51697A686FEA020201EA020212
:100560005A6107F10C07BD4680BC704720C00920C6
:1005700080B500AF104B1A68104BA3FB02134FEA73
:1005800093131846FFF774FF0346002B00D0FEE7D5
:10059000FFF7BCFF4FF48020FFF7C4FF4FF064006B
:1005A000FFF79EFF4FF48020FFF7CEFF4FF064006F
:1005B000FFF796FFEEE700BF00000010D34D62107A
:1005C00000000000E005000000000010080000002E
:0405D000080000001F
:0805D400F8FAFF7F01000000AE
:0805E00000E1F5050000000038
:00000001FF
